:020000040800F2
:100000000000022089010008AD0B0008AF0B0008BA
:10001000B10B0008B30B0008B50B0008000000008E
:10002000000000000000000000000000B70B000806
:10003000B90B000800000000BB0B0008BD0B000856
:10004000C10B0008C30B0008C50B0008C70B000854
:10005000C90B0008CB0B0008CD0B0008CF0B000824
:10006000D10B0008D30B0008D50B0008D70B0008F4
:10007000D90B0008DB0B0008DD0B0008DF0B0008C4
:10008000E10B0008E30B0008E50B0008E70B000894
:10009000E90B0008EB0B0008ED0B0008EF0B000864
:1000A000F10B0008F30B0008F50B0008F70B000834
:1000B000F90B0008FB0B0008FD0B0008FF0B000804
:1000C000010C0008030C0008050C0008070C0008D0
:1000D000090C00080B0C00080D0C00080F0C0008A0
:1000E000110C0008130C0008150C0008170C000870
:1000F000190C00081B0C00081D0C00081F0C000840
:10010000210C0008230C0008250C0008270C00080F
:10011000290C00082B0C00082D0C00082F0C0008DF
:10012000310C0008330C0008350C0008370C0008AF
:10013000390C00083B0C00083D0C00083F0C00087F
:10014000410C0008430C0008450C0008470C00084F
:10015000490C00084B0C00084D0C00084F0C00081F
:10016000510C0008530C0008550C0008570C0008EF
:10017000590C00085B0C00085D0C00080000000032
:100180005F0C0008610C000808484FF00821A1EB43
:100190000003B3F5801F07DD054BA3EB010202440A
:1001A00078C878C19042FBDD00F038FBB40100084C
:0401B0009C49002046
:1001B400FFFFFFFFFFFFFFFFFFFFFFFFFFFFFFFF4B
:1001C400FFFFFFFFFFFFFFFFFFFFFFFFFFFFFFFF3B
:1001D400FFFFFFFFFFFFFFFFFFFFFFFFFFFFFFFF2B
:1001E400FFFFFFFFFFFFFFFFFFFFFFFFFFFFFFFF1B
:1008000000F00CB800080008004000209C490020BF
:10081000E4C4002091880008000002200E480F491F
:100820000F4AA0EB0203B3F5003F07DD002302E00F
:10083000D458C4500433C4188C42F9D3094A0A4C22
:10084000002301E013600432A242FBD3DFF81CD086
:1008500000F020FB08F01CF8004000209A4900201E
:100860000C6E01089C490020E4C400200000022016
:1008700070B51848D8F8005016461C460AF031FAF0
:10088000012E25DD60680378642B21D01022002121
:100890000FF0AAFD044600210F480DF0B7F9002122
:1008A0000E480DF0B3F900210D480DF0AFF900210D
:1008B0000C480DF0ABF94FF0E0220134136923F03E
:1008C000010313610020D5E90312A047002070BD89
:1008D000054CE0E71F44010828440108334401089F
:1008E00052440108664401080000020810B50A4895
:1008F00000210DF08BF9044648B9014607480DF078
:1009000085F9074821460DF081F9002010BD054901
:1009100005480AF0AFFEF8E76C44010828440108D6
:100920007244010824430108F959010810B50A4826
:1009300000210DF06BF9044648B9014607480DF057
:1009400065F9074821460DF061F9002010BD054901
:1009500005480AF08FFEF8E76C44010828440108B6
:10096000954401083A430108F959010810B50A48AD
:1009700000210DF04BF9044648B9014607480DF037
:1009800045F9074821460DF041F9002010BD054901
:1009900005480AF06FFEF8E76C440108B544010809
:1009A000C04401084D430108F95901082DE9F046FA
:1009B000C3B00021FC22064603A8CDE901110FF0C7
:1009C00096FA44F64F33ADF80030434842F21073C4
:1009D000042202A900F0B5FF0446002878D13E4861
:1009E000DDF808903C4FDFF8F4A06423022269464A
:1009F00000F056FF42F210734FF4807202A938469D
:100A000000F09FFF002863D19DF80850EDB93248EF
:100A100064230222694600F043FF30480AF02AFEB0
:100A200064212F480AF026FE2E480AF023FE2E48A5
:100A300021460AF01FFEB4F5602F47D92B492C48F8
:100A40000AF018FE4FF0FF3037E02A460DF1090199
:100A5000A0190FF076FA642302226946384600F0A6
:100A60001FFFFF2D2C44D8D150460AF003FE64210D
:100A700061431B48B1FBF9F10AF0FCFDBAE7671BC3
:100A8000FF2F4FF0FF0205EB060102A828BFFF274A
:100A90000FF057FA0023019A02A81946BB420FD162
:100AA00001B10192FF35A542E9D30B484FF0FF3366
:100AB000022201A900F0F4FE002043B0BDE8F08658
:100AC00010F8011B01330A440121E7E70025EAE79A
:100AD00006490848B4E700BFE8490020E44401089B
:100AE000EA440108ED6A0108F5440108634301087E
:100AF0000445010815450108012A10B50EDD5868A6
:100B0000102200210FF070FC0446064821460AF02E
:100B1000B1FD2046BDE81040FFF748BF4FF0D0447C
:100B2000F3E700BF2445010810B54FF0D040FFF7B0
:100B30003DFF044638B9014604480DF067F8044803
:100B400021460DF063F8002010BD00BF28440108C5
:100B50009544010810B54FF0D040FFF727FF044639
:100B600038B9014604480DF051F8044821460DF00B
:100B70004DF8002010BD00BFB5440108C044010875
:100B800010B54FF0D040FFF711FF044638B90146C9
:100B900004480DF03BF8044821460DF037F80020DA
:100BA00010BD00BF28440108724401087047704717
:100BB00070477047704770477047704700F028BC17
:100BC000704770477047704770477047704770476D
:100BD000704770477047704770477047704770475D
:100BE000704770477047704770477047704770474D
:100BF000704770477047704770477047704770473D
:100C0000704770477047704770477047704770472C
:100C1000704770477047704770477047704770471C
:100C2000704770477047704770477047704770470C
:100C300070477047704770477047704770477047FC
:100C400070477047704770477047704770477047EC
:100C500070477047704770477047704770477047DC
:100C60007047000070B5104C104A00254FF4E13376
:100C70000C262046C4E90023C4E90255C4E90565F1
:100C80002561E56100F038FD09490A4BC4E91555B5
:100C9000C4E91313C4E91756C4E9195504F14C000B
:100CA000BDE8704000F028BD9C4900200044004091
:100CB0000048004080841E0010B504468CB0142209
:100CC000002107A80FF013F92368354A934225D174
:100CD000344B002101915A6C42F010025A645A6C54
:100CE00002F010020192019A02911A6B42F0010285
:100CF0001A631B6B03F001030293029B4FF4C06362
:100D0000079301220223CDE908320A9326480723DC
:100D10000B9307A900F08EF90CB010BD234A934243
:100D200017D1204B002103911A6C42F400321A644F
:100D30001A6C02F400320392039A04911A6B42F087
:100D400001021A631B6B03F001030493049B0C2341
:100D5000D6E7174A9342DFD1124B1648002105917E
:100D60001A6C42F480221A641A6C02F480220592F2
:100D7000059A06911A6B42F002021A631B6B03F08C
:100D8000020306934FF44062069B0223CDE907233A
:100D90000122CDE9092307230B9307A9BAE700BF76
:100DA00000100140003802400000024000440040B2
:100DB00000480040000402400368134A93420AD1ED
:100DC00002F594324FF4C061536C23F01003536466
:100DD0000E4800F005BA0E4A934207D102F5FA32E6
:100DE0000C21136C23F400331364F1E7094A934296
:100DF00009D102F5F8320848136C23F480231364F8
:100E00004FF44061E5E770470010014000000240E8
:100E100000440040004800400004024070470020A9
:100E2000704707B54FF0FF33012201A9034800F0D6
:100E300088FD019803B05DF804FB00BF9C490020C9
:100E400007B54FF0FF338DF80700012207480DF179
:100E5000070100F025FD9DF807300A2B02D10D2077
:100E6000FFF7EEFF03B05DF804FB00BF9C490020D4
:100E7000024B1B681868C0F3401070479C49002063
:100E800010B5441E14F8010F00B910BDFFF7D8FFCC
:100E9000F8E700BF08B500F0A1FA01F069FF01F022
:100EA0009FFE01F0CDFE01F0B3FFFFF7DBFE00F087
:100EB0001FF8002008BD82B00B4B002100915A6C36
:100EC00042F480425A645A6C02F480420092009AC2
:100ED00001911A6C42F080521A641B6C03F080532B
:100EE0000193019B02B070470038024072B6FEE7E2
:100EF00010B592B000243E4B01949A6B3D4842F0ED
:100F000001029A639A6B02F001020192019A029423
:100F10001A6B42F008021A631A6B02F0080202927E
:100F2000029A03941A6B42F010021A631A6B02F0D1
:100F300010020392039A04941A6B42F020021A637F
:100F40001A6B02F020020492049A05941A6B42F084
:100F500040021A631B6B03F0400305934FF6337294
:100F6000059B0223CDE9062301210323CDE90813C4
:100F70000C2306A90A9300F05DF84FF6837306A9C7
:100F80001D48069300F056F84FF23F0306A91B4890
:100F9000069300F04FF840F23F4306A91848069325
:100FA00000F048F8174811944FF02043036003F510
:100FB000827343600423C0E902341023C0E905347E
:100FC0004FF48053C0E90A340BAA4FF48013C36373
:100FD00011460823C0E90C44CDE90B44CDE90D349A
:100FE0000461C4614462846301F0D3FC12B010BD9B
:100FF00000380240000C0240001002400014024081
:1010000000180240344A002001F1D04102449042CD
:1010100000D1704710F8013B01F8013BF7E701F1FF
:10102000D0410244904200D1704711F8013B00F8D2
:10103000013BF7E72DE9F34E664A00230D680124D2
:101040009C4004EA050CAC4340F0B0804D6805F0CC
:1010500003044FEA43090326671E06FA09F6012F27
:101060006FEA060634D8876807EA060ECF6807FAE3
:1010700009F747EA0E078760476827EA0C0EC5F3B1
:1010800000179F4047EA0E074760C76807EA060E49
:101090008F6807FA09F747EA0E07022CC76019D1D3
:1010A0004FEAD30A00EB8A0A03F0070BDAF8207044
:1010B0004FEA8B0B4FF00F0E0EFA0BFE27EA0E0EC7
:1010C0000F6907FA0BF747EA0E07CAF8207001E02C
:1010D000032CDAD1076804FA09F437403C4315F4CD
:1010E000403F046062D03C4F002401947E6C46F483
:1010F00080467E647E6C06F480460196019E23F055
:10110000030606F1804606F59C3603F0030ED6F87A
:1011100008904FEA8E0E0F2707FA0EF729EA070705
:10112000DFF8B89048451FD004F1804404F501343D
:10113000A04242D004F58064A04240D004F580640F
:10114000A0423ED004F58064A0423CD004F5806407
:10115000A0423AD004F58064A04238D004F58064FF
:10116000A0420CBF0724082404FA0EF43C43B460E8
:1011700014686FEA0C06EF0354BF34404CEA0404D1
:1011800014605468AF0354BF34404CEA0404546004
:101190009468EF0254BF34404CEA04049460D4686D
:1011A000AD0254BF34404CEA0404D4600133102B28
:1011B0007FF444AF02B0BDE8F08E0124D4E70224EE
:1011C000D2E70324D0E70424CEE70524CCE70624A5
:1011D000CAE700BF003C0140003802400000024066
:1011E0002DE9F04E424CDFF80CB10022012303FA46
:1011F00002FE3EEA01050EEA010768D122F003056E
:1012000005F1804505F59C35DFF8ECA0D5F8089090
:1012100002F0030C4FEA8C0C0F2606FA0CF6504530
:1012200006EA090958D00AF5806A504516D0334BB2
:10123000984253D003F58063984251D003F5806300
:1012400098424FD003F5806398424DD058454DD019
:1012500003F5006398420CBF0723082303FA0CF33D
:101260004B4513D1236823EA07032360636823EA0D
:1012700007036360A36823EA0703A360E36823EA24
:101280000703E360AB6823EA0603AB60056856001A
:101290000323B34025EA03050560D50800EB850567
:1012A00002F0070C2E6A4FEA8C0C0F2707FA0CF796
:1012B00026EA07062E62C56825EA0305C56045686B
:1012C00025EA0E054560856825EA0303836001323F
:1012D000102A8BD1BDE8F08E0023BFE70223BDE7C3
:1012E0000323BBE70423B9E70523B7E70623B5E7E4
:1012F000003C01400018024000000240000802408B
:101300000369194214BF0120002070470AB18161AE
:1013100070470904FBE7436901EA030221EA03017C
:1013200041EA02418161704782B04FF480330193FA
:10133000019B0B430193019BC361C161019BC3618D
:10134000C3690193C06980F48030C0F3004002B0EB
:1013500070477047034A5169014202D05061FFF75C
:10136000F8BF7047003C01407047704710B5094B0B
:101370004FF0FF3200241A621C625A625C621A61EA
:101380001C615A615C619A619C61FFF7EEFF204627
:1013900010BD00BF0038024070B50E4E4FF47A7396
:1013A0003268B3FBF2F30C4A05461068B0FBF3F069
:1013B00003F01EFF044650B90F2D08D802462946F7
:1013C0004FF0FF3003F0AEFE7560204670BD012483
:1013D000FBE700BF004000200840002008B50B4B91
:1013E0001A6842F400721A601A6842F480621A6045
:1013F0001A6842F480721A60032003F081FE0F2005
:10140000FFF7CAFFFFF757FD002008BD003C024070
:10141000034A0449136809680B441360704700BF0E
:10142000884A002000400020014B1868704700BF28
:10143000884A0020014B5868704700BF00400020D8
:1014400038B5064C2568854206D020606068FFF7F5
:10145000A3FF00B1256038BD0020FCE7004000205C
:10146000014B1868704700BF0040002038B50446A3
:10147000FFF7DAFF631C1CBF054B1B68054618BF4E
:10148000E418FFF7D1FF431BA342FAD338BD00BFD6
:10149000004000204FF0E022136923F002031361A3
:1014A00070474FF0E022136943F002031361704765
:1014B00000487047000D0701014B1868000C704789
:1014C000002004E0024B1868C0F30B00704700BF17
:1014D000002004E0024A536843F001035360704760
:1014E000002004E0024A536823F001035360704770
:1014F000002004E0024A536843F00203536070473F
:10150000002004E0024A536823F00203536070474E
:10151000002004E0024A536843F00403536070471C
:10152000002004E0024A536823F00403536070472C
:10153000002004E0024B0122C3F80024704700BFE2
:1015400000002742024B0022C3F80024704700BF6E
:1015500000002742014BD3F8100A70470070FF1FAC
:10156000014BD3F8140A70470070FF1F014BD3F8EA
:10157000180A70470070FF1F026802F10C0353E85D
:10158000003F23F490730C3242E8003102680029D6
:10159000F2D102F1140353E8003F23F0010302F1FA
:1015A000140C4CE800310029F3D1036B012B0BD153
:1015B00002F10C0353E8003F23F0100302F10C0C7E
:1015C0004CE800310029F3D1202343640023036356
:1015D00070470268C16838B5136923F440530B4360
:1015E0001361054683680069D16803436869034352
:1015F000E86921F4164121F00C0103430B43D36049
:101600005369A96923F440730B4353611F4B9A42FA
:1016100003D003F580639A4224D103F007FAEA6904
:101620001921B2F5004FD5E90043A0FB01011CD1FF
:10163000DA184FF0000545EB050311F0A5FC642214
:10164000B0FBF2F102FB1103DB003233B3FBF2F328
:1016500003F007025B0002EB011203F4F87313447A
:10166000A36038BD03F0D2F9D9E79A009B0F11F0BF
:101670008BFC6422B0FBF2F102FB11031B0132333D
:10168000B3FBF2F303EB0113EAE700BF00100140E4
:10169000F8B504460E4617461D462268136836EA1A
:1016A000030326D06B1CF9D025B1FFF7BDFEC01B8C
:1016B0008542F2D2226802F10C0353E8003F23F482
:1016C000D0730C3242E8003021680028F2D101F1D9
:1016D000140353E8003F23F0010301F1140040E834
:1016E0000032002AF3D120232364E26363640320E1
:1016F000F8BD0020FCE7704710B5044608B3036C42
:1017000013B9C363FFF7D8FA226824232364D3688C
:1017100023F40053D3602046FFF75BFF23681A6968
:1017200022F490421A615A6922F02A025A61DA6858
:1017300042F40052DA6000202023A0642364636432
:1017400010BD0120FCE710B5044628B3036C13B9A3
:10175000C363FFF7B1FA226824232364D36823F418
:101760000053D3602046FFF734FF23681A6922F440
:1017700090421A615A6922F022025A615A6942F073
:1017800008025A61DA6842F40052DA60002020232D
:10179000A0642364636410BD0120FCE738B50D46E6
:1017A000044600282CD0036C13B9C363FFF784FAF6
:1017B000226824232364D36823F40053D360204693
:1017C000FFF707FF23681A6922F400621A615A6959
:1017D00022F02A025A611A6942F480421A611A6997
:1017E00022F020021A611A692A431A61DA6842F467
:1017F0000052DA6000202023A0642364636438BDB3
:101800000120FCE770B50D461646044600282FD08F
:10181000036C13B9C363FFF74FFA226824232364D0
:10182000D36823F40053D3602046FFF7D2FE236829
:101830001A6922F490421A615A6922F02A025A6106
:101840001A6922F00F021A611A6915431D61DA68DC
:1018500022F40062DA60D9683143D960DA6842F470
:101860000052DA6000202023A0642364636470BD0A
:101870000120FCE7704710B5044678B102682423C4
:101880000364D36823F40053D360FFF795FA002074
:10189000A064E06320646064206310BD0120FCE765
:1018A0002DE9F8469946036C202B04460E469246D5
:1018B00045D1002941D0002A3FD0C36B012B3ED037
:1018C0000123C3630025212385640364FFF7ACFD76
:1018D000A368A4F824A0B3F5805F0746A4F826A067
:1018E00003D123690BB935461E460023E363E38C1D
:1018F0009BB24BB94B463A4640212046FFF7C8FE03
:1019000048B92023236407E04B463A46802120460D
:10191000FFF7BEFE10B10320BDE8F88622684EB97D
:1019200035F8023BC3F308035360E18C013989B2F7
:10193000E184DCE716F8013BF6E70120ECE7022042
:10194000EAE72DE9F8461F46436C202B04460E4675
:1019500092464AD1002946D0002A44D0C36B012BBD
:1019600043D00123C36300252223856443640563B8
:10197000FFF75AFDA368A4F82CA0B3F5805F814659
:10198000A4F82EA003D123690BB935461E460023C7
:10199000E363E08D80B218B920236364BDE8F88664
:1019A0003B464A4620212046FFF772FEF8B92368DD
:1019B0004EB95B68C3F3080325F8023BE38D013B96
:1019C0009BB2E385E5E7A268B2F5805F02D032B949
:1019D000226922B95968C9B206F8011BEEE75968B5
:1019E00001F07F01F8E70120D8E70220D6E70320C5
:1019F000D4E7036C202B15D191B18AB1C36B012BB5
:101A000010D0C28401628284016800232122836491
:101A10000264CA68C36342F08002CA601846704715
:101A2000012070470220704738B504461346226CE7
:101A3000202A2ED159B353B3E26B012A29D00122B7
:101A4000E263606BE38400252122A5642264124ACC
:101A5000A38421620264114A4264114AC0E9142538
:101A60002268043203F03FF923686FF040021A60E5
:101A70002268E56302F1140353E8003F43F080035A
:101A800002F1140141E800300028F3D138BD0120F3
:101A9000FCE70220FAE700BF2F1F0008791F0008AB
:101AA000851F0008C36B012B024641D00123C3638D
:101AB00003685969006C21280DD108060BD503F184
:101AC000140151E8001F21F0800103F1140C4CE8CF
:101AD00000100028F3D15969506C222825D14906FD
:101AE00023D503F10C0151E8001F21F4807103F1AB
:101AF0000C0C4CE800100028F3D103F1140151E85C
:101B0000001F21F0010103F1140C4CE80010002823
:101B1000F3D103F1140151E8001F21F0400103F15A
:101B2000140C4CE800100028F3D10020D06370475B
:101B300002207047C26B012A82B0034643D00122C3
:101B4000C263026C212A0BD1196801F1140252E818
:101B5000002F42F08002143141E800200028F3D128
:101B60005A6C222A2BD1002201921A681168019125
:101B700051680191019902F10C0151E8001F41F4F3
:101B8000807102F10C0C4CE800100028F3D102F136
:101B9000140151E8001F41F0010102F1140C4CE85E
:101BA00000100028F3D102F1140151E8001F41F0A8
:101BB000400102F1140C4CE800100028F3D1002081
:101BC000D86302B070470220FBE702685369016CDA
:101BD000212910B504461FD119061DD502F11403A1
:101BE00053E8003F23F0800302F1140040E8003185
:101BF0000029F3D1606B08B103F0ACF8226802F160
:101C00000C0353E8003F23F0C0030C3242E80031DC
:101C10000029F3D12023236422685369616C2229AF
:101C200014D15B0612D502F1140353E8003F23F0F0
:101C3000400302F1140040E800310029F3D1A06B09
:101C400008B103F087F82046FFF796FC002010BD8E
:101C50002DE9F34E1F46436CDDF82890202B0446F7
:101C60000E46934671D100296DD0002A6BD0C36B0C
:101C7000012B6AD00123222200258564C3634264BC
:101C80000363FFF7D1FBA368A4F82CB0B3F5805F22
:101C90008246A4F82EB003D123690BB935461E46FF
:101CA0004FF0000BC4F83CB0A7F800B0E08D80B254
:101CB00030B9E28DA38D9B1A3B80202363640FE033
:101CC00022681368D9060ED5CDF804B013680193C5
:101CD00053680193019B3B882BB120236364002050
:101CE00002B0BDE8F08E13689B060CD5DEB95368D0
:101CF000C3F3080325F8023B3B8801333B80E38DA7
:101D0000013B9BB2E385B9F1FF3FCFD0FFF78CFBDE
:101D1000A0EB0A00484502D8B9F1000FC6D1202334
:101D200063640320DCE7A368B3F5805F02D033B9B6
:101D3000236923B95368DBB206F8013BDCE753683B
:101D400003F07F03F8E70120CAE70220C8E738B5AF
:101D50000446226802F10C0353E8003F23F4F073B9
:101D60000C3242E8003123680029F2D103F1140259
:101D700052E8002F22F0010203F1140141E800258E
:101D8000002DF3D1226B012A0BD103F10C0252E892
:101D9000002F22F0100203F10C0040E8002100297E
:101DA000F3D15A6912061BD503F1140252E8002F31
:101DB00022F0800203F1140040E800210029F3D151
:101DC000606B68B1416502F0C5FF48B1606B03F01C
:101DD00094F9202804D11023A3640325284638BD94
:101DE000226853695B0616D502F1140353E8003FDD
:101DF00023F0400302F1140040E800310029F3D140
:101E0000A06B40B1416502F0A5FF20B1A06B03F0CB
:101E100074F92028DFD000232022E384E385A36423
:101E2000626422642363D9E738B50446226802F16C
:101E30000C0353E8003F23F0C0030C3242E80035A6
:101E40002268002DF2D153691B061BD502F1140341
:101E500053E8003F23F0800302F1140040E8003112
:101E60000029F3D1606B68B1416502F073FF48B19E
:101E7000606B03F042F9202804D11023A3640325EA
:101E8000284638BD0023E38420232364F8E738B5CF
:101E90000446226802F10C0353E8003F23F49073D8
:101EA0000C3242E8003123680029F2D103F1140218
:101EB00052E8002F22F0010203F1140141E800254D
:101EC000002DF3D1226B012A0BD103F10C0252E851
:101ED000002F22F0100203F10C0040E8002100293D
:101EE000F3D15A6952061BD503F1140252E8002FB0
:101EF00022F0400203F1140040E800210029F3D150
:101F0000A06B68B1416502F025FF48B1A06B03F0FA
:101F1000F4F8202804D11023A3640325284638BDF3
:101F200000232022E38562642363F7E770470346BA
:101F3000C06B1B681B6813F480731AD1C3840268DA
:101F400002F1140353E8003F23F08003143242E807
:101F5000003102680029F2D102F10C0353E8003F7E
:101F600043F0400302F10C0040E800310029F3D1B6
:101F70007047FFF7DBBF7047C06BFFF7FCBF7047D0
:101F800070477047C06B08B503685A69016C212916
:101F900011D112060FD50022C28403F10C0252E8BF
:101FA000002F22F0C00203F10C0C4CE800210029A4
:101FB000F3D1202202645B69426C222A05D15B06C0
:101FC00003D50023C385FFF7D7FA836C43F01003D2
:101FD0008364BDE80840FFF7D4BFC06B0023C3850E
:101FE000C384FFF7CEBF704738B50446226802F1BC
:101FF0000C0353E8003F23F4F0730C3242E8003145
:1020000023680029F2D103F1140252E8002F22F0D4
:10201000010203F1140040E800210029F3D1226BF2
:10202000012A33D0606B00283DD1A16B29B15A69D8
:1020300012F0400218BF2C4A4A655A69110639D479
:10204000012321684A6952064AD501F1140252E877
:10205000002F22F0400201F1140040E80025002D7D
:10206000F3D1A06B00283BD002F0AEFE002839D09F
:10207000A36B5D6500232022E3842046E385A364EF
:10208000226462642363FFF7AEFF2BE003F10C02CE
:1020900052E8002F22F0100203F10C0040E800216A
:1020A0000029F3D1BEE75A6912F0800218BF0F4A27
:1020B0004265BAE703F1140252E8002F22F08002D1
:1020C00003F1140141E80025002DF3D10028B7D019
:1020D00002F07AFE03460028B3D0636B5D65AFE77C
:1020E000012BC7D0002038BDF120000815210008C1
:1020F000C06B826B00235365426B0AB1526D42B9CB
:102100002022C384C3858364026442640363FFF7AF
:102110006ABF7047C06B426B00235365826B0AB184
:10212000526D42B92022C384C38583640264426431
:102130000363FFF758BF7047704710B50446226825
:1021400002F10C0353E8003F23F0C0030C3242E8D5
:10215000003122680029F2D1536913F080031ED0A8
:1021600002F1140353E8003F23F0800302F114004E
:1021700040E800310029F3D1606B48B1094B436559
:1021800002F022FE10B1606B436D9847002010BD35
:10219000E084202323642046FFF7CEFFF6E7E384A4
:1021A000F7E700BFA9210008C06B0023C3842023E8
:1021B0000364FFF7C1BF704710B50446226802F1FF
:1021C0000C0353E8003F23F490730C3242E80031D3
:1021D00023680029F2D103F1140252E8002F22F003
:1021E000010203F1140040E800210029F3D1226B21
:1021F000012A0BD103F10C0252E8002F22F0100249
:1022000003F10C0040E800210029F3D15A6912F0D3
:1022100040021FD003F1140252E8002F22F04002C6
:1022200003F1140040E800210029F3D1A06B48B16C
:102230000B4B436502F0C8FD10B1A06B436D98478E
:10224000002010BD2023E085636420632046FFF753
:10225000B2FFF5E72023E28563642263F6E700BF5F
:1022600065220008C06B00232022C38542640363FB
:10227000FFF7A1BF7047C06B036B012B03D1818DAA
:102280004908FFF7F7BFFFF77BBE0346C06B1B682B
:102290001B6813F4807336D1C385026802F10C0306
:1022A00053E8003F23F480730C3242E800310368A6
:1022B0000029F2D103F1140252E8002F22F00102AA
:1022C00003F1140C4CE800210029F3D103F11402AE
:1022D00052E8002F22F0400203F1140C4CE80021D8
:1022E0000029F3D120224264026B012A0BD103F1B1
:1022F0000C0252E8002F22F0100203F10C0C4CE803
:1023000000210029F3D1036B012B02D1818DFFF74E
:10231000B1BFFFF734BE436C222B82B051D181682C
:10232000836A0268B1F5805F3BD1016900293BD126
:102330005268C2F3080223F8022B8362C38D013B6B
:102340009BB2C385002B3CD10268D16821F02001EB
:10235000D160D16821F48071D160516921F001010F
:10236000516120224264026B012A026826D1036374
:1023700002F10C0353E8003F23F0100302F10C0CB0
:102380004CE800310029F3D11368DB0605D5019133
:102390001368019353680193019B818D02B0FFF78D
:1023A00069BF39B9016929B95268D2B21A70836A12
:1023B0000133C2E7526802F07F02F7E702B0FFF78D
:1023C000DEBD02B0704703681A6873B51607D96896
:1023D0005D69044607D1960669D58D0667D502B0BA
:1023E000BDE8704097E705F0010001F490750543E2
:1023F0005DD0D60705D5CD0542BFA36C43F00103E0
:10240000A364530704D518B1A36C43F00203A3647B
:10241000960704D518B1A36C43F00403A364150711
:1024200007D501F0200303431EBFA36C43F008034C
:10243000A364A36C002B38D0920604D58B0602D57A
:102440002046FFF768FF26687369A26C03F040031B
:1024500002F0080253EA0205204623D0FFF78CF869
:1024600073695E0618D5226802F1140353E8003F31
:1024700023F04003143242E800310029F3D1A06B6D
:1024800050B1734B436502F09FFC70B1A06B436D7C
:1024900002B0BDE870401847204602B0BDE8704069
:1024A000FFF76FBDFFF76DFDA56402B070BD206B37
:1024B000012840F09180D50640F18E80C80640F199
:1024C0008B80002201921A6801925A680192019A47
:1024D0005A6952064DD5A16B0A68526892B2002A19
:1024E000E3D0A08D9042E0D9E285CA69B2F5807F41
:1024F00035D003F10C0252E8002F22F4807203F170
:102500000C0040E800210029F3D103F1140252E845
:10251000002F22F0010203F1140040E800210029FD
:10252000F3D103F1140252E8002F22F0400203F12C
:10253000140040E800210029F3D1202262642163C5
:1025400003F10C0252E8002F22F0100203F10C00FC
:1025500040E800210029F3D1A06B02F0FBFBE38DE2
:10256000A18DC91A89B2204602B0BDE87040FFF7BC
:1025700081BEE28DE08DA18D80B292B2002894D010
:10258000891A89B2002990D003F10C0252E8002F79
:1025900022F4907203F10C0545E800200028F3D1E5
:1025A00003F1140252E8002F22F0010203F1140596
:1025B00045E800200028F3D120226264206303F163
:1025C0000C0252E8002F22F0100203F10C0545E83E
:1025D00000200028F3D1C6E7160627D50D0625D51D
:1025E000226C212A7FF461AFA168226AB1F5805F75
:1025F00017D12169A9B932F8021BC1F3080159604A
:102600002262E28C013A92B2E284002A7FF44DAF5A
:10261000DA6822F08002DA60DA6842F04002DA60BA
:1026200043E7511C216212785A60EAE750067FF5B1
:102630003CAF4A067FF539AFDA6822F04002DA6033
:1026400020462023236402B0BDE87040FFF76EBC33
:10265000DB1F0008C26B012A034613D00122C263AC
:1026600024220264196801F10C0252E8002F42F0A2
:1026700001020C3141E800200028F3D120221A6425
:10268000D863704702207047C26B012A034613D0FB
:102690000122C26324220264196801F10C0252E88B
:1026A000002F42F002020C3141E800200028F3D153
:1026B00020221A64D863704702207047C26B012A37
:1026C000034613D00122C26324220264196801F177
:1026D0000C0252E8002F22F002020C3141E80020E7
:1026E0000028F3D120221A64D86370470220704773
:1026F000C36B012B0ED0026824230364D36823F03C
:102700000C0343F00803D360202303640023C36356
:102710001846704702207047C36B012B0ED0026829
:1027200024230364D36823F00C0343F00403D36031
:10273000202303640023C3631846704702207047B8
:10274000026C406C10437047806C70470346C28532
:1027500082858162222200209864D8635A641B68B3
:10276000DA6842F48072DA605A6942F001025A6112
:10277000DA6842F02002DA60704770B4466C202EAE
:102780000ED151B14AB1C46B012C09D00124C463EC
:102790000024046370BCFFF7D9BF012070BC7047F0
:1027A0000220FBE773B5466C202E044626D111B9F2
:1027B000012002B070BD002AFAD0C36B012B1DD0DE
:1027C0000123C3630363FFF7C1FF0028F1D1236B2B
:1027D000012BEDD122680190136801935368019396
:1027E000019B02F10C0353E8003F43F0100302F198
:1027F0000C0141E800300028F3D1DAE70220D8E7E5
:1028000073B51346002582852222044681628564C1
:102810004264806B1C4A02641C4A266842641C4A5B
:10282000C0E914250A46311D02F05DFA23680195BE
:102830001A6801925A680192019AE56303F10C0249
:1028400052E8002F42F4807203F10C0040E80021AE
:102850000029F3D103F1140252E8002F42F00102E3
:1028600003F1140040E800210029F3D103F1140220
:1028700052E8002F42F0400203F1140141E8002029
:102880000028F3D102B070BD8B2200087722000827
:10289000851F000870B4466C202E0ED151B14AB18C
:1028A000C46B012C09D00124C4630024046370BCF0
:1028B000FFF7A6BF012070BC70470220FBE773B58D
:1028C000466C202E044626D111B9012002B070BDFD
:1028D000002AFAD0C36B012B1DD00123C36303630D
:1028E000FFF78EFF0028F1D1236B012BEDD1226879
:1028F00001901368019353680193019B02F10C034B
:1029000053E8003F43F0100302F10C0141E80030AE
:102910000028F3D1DAE70220D8E700BF7047164B52
:102920009A6802F00C02042A21D0082A21D15968A1
:102930005A685B684902C3F388134CBF0F491049BA
:1029400002F03F02B1FBF2F253430B4A5268C2F36A
:10295000014201325200B3FBF2F3074A094992687F
:10296000C2F303128A5CD340074A13607047034BDB
:10297000F3E7034BF1E700BF0038024000127A0092
:102980000024F4007243010808400020704770479B
:10299000704770B50E4615460446F0B1C36C13B9C6
:1029A0008364FFF7F5FF04F10801206805F0A4FD3A
:1029B000A2682068314605F0E2FD236BA2686068DA
:1029C000294605F0FAFD2268A16852F8213043F04B
:1029D000010342F82130002070BD0120FCE7704760
:1029E00010B50446FFF7FBFFD4E90112206805F09B
:1029F000ADFD0020E064A06410BD30B50446806CDD
:102A000001284FF0020009D00125A564E0640B44C1
:102A1000994204D101230020E364A06430BD11F881
:102A2000010B02F8010BF3E730B50446C06C042833
:102A300014D0A06C01284FF0020009D00125A56434
:102A4000E06413449A4204D101230020E364A064AB
:102A500030BD12F8010B01F8010BF3E70120F7E795
:102A600010B50446806C01284FF0020005D0E064E8
:102A7000184618B90123E364A06410BD31F8023B85
:102A800022F8023B0138F4E710B50446C06C042874
:102A900011D0A06C01284FF0020005D0E064184668
:102AA00018B90123E364A06410BD32F8023B21F899
:102AB000023B0138F4E70120F6E730B50446806CAC
:102AC00001284FF0020007D00125E064A5641846F4
:102AD00018B90123E364A06430BD51F8043B42F807
:102AE000043B0138F4E730B50446C06C042813D029
:102AF000A06C01284FF0020007D00125E064A56416
:102B0000184618B90123E364A06430BD52F8043BB1
:102B100041F8043B0138F4E70120F6E770B50446BC
:102B2000806C01284FF002000CD0E064206D064E4E
:102B30000125A5640664054E066502F0D4F8002060
:102B4000E564A06470BD00BF8F2900088D290008CE
:102B500070B50D461146C26C042A044613D0826C2F
:102B6000012A4FF002000DD0E064206D074A0126D3
:102B7000A6640264064A02652A4602F0B4F8002000
:102B8000E664A06470BD0120FCE700BF8F29000847
:102B90008D29000838B5836C012B044609D0012526
:102BA00081688564006805F027FD0020E564A06465
:102BB00038BD0220FCE7836C012B10B504464FF0B2
:102BC00002000AD00123A364E064A168206805F034
:102BD0001BFD04230020E364A06410BDC06C70479B
:102BE00084B0164B00220092196B41F00401196366
:102BF000196B01F00401009100990192196B41F0E9
:102C000080011963196B01F0800101910199029211
:102C1000196B41F001011963196B01F00101029177
:102C2000029903921A6B42F002021A631B6B03F0C3
:102C300002030393039B04B0704700BF00380240B7
:102C40000E480F4A08B54FF48273C0E900230023F1
:102C50004FF40072C0E90233C0E90433C0E906232F
:102C6000C0E9083383620A23C36200F0BEFA18B1D8
:102C7000BDE80840FEF73AB908BD00BF8C4A002005
:102C800000300140094B1B681A6822F040021A60AC
:102C90001A6822F038021204120C1A601A681043E3
:102CA00018601A6842F040021A6070478C4A00208F
:102CB0007FB54FF47A738DF80F0000930DF1170272
:102CC00001230DF10F01044800F09FFB9DF8170050
:102CD00007B05DF804FB00BF8C4A002010B5044625
:102CE00088B01422002103A80DF001F92268144BCA
:102CF0009A4222D103F58433002101915A6C114884
:102D000042F480525A645A6C02F480520192019A41
:102D100002911A6B42F002021A631B6B03F002036A
:102D20000293029B382202230321CDE903230523CA
:102D3000CDE9061303A9FEF77DF908B010BD00BF69
:102D400000300140000402400268064B9A4208D15C
:102D5000054A0648536C23F4805353643821FEF728
:102D60003FBA704700300140003802400004024082
:102D700010B594B01422002109A80DF0B8F814225F
:102D8000002103A80DF0B3F800231F4A0193116C32
:102D900041F080511164126C02F080520192019A4C
:102DA0001A4A0293116841F48041116012680224AA
:102DB00002F48042CDE90E4302924FF4A873CDE9AC
:102DC0001134029A089410220121042308A8CDE9A5
:102DD0000B121092139301F047FB08B1FEF786F82F
:102DE0000F23CDE9033400224FF4A053CDE905238E
:102DF00005214FF4805303A8079301F067FD08B144
:102E0000FEF774F814B010BD0038024000700040A6
:102E100010B586B02D4C1022002102A80DF067F8E5
:102E200042F2CF024FF080410023C4E90012204655
:102E30006322CDE90033C4E90323A360A36103F057
:102E40008BFB08B1FEF752F84FF480531F480293F2
:102E500002A903F0CBFE08B1FEF748F800231B4897
:102E60006946CDE9003305F0C3FA08B1FEF73EF834
:102E7000164802F096FB164A164842F2CF03C4E900
:102E80001A2300236322C4E91C32A367C4F88030EC
:102E900003F062FB08B1FEF729F84FF480530D48A8
:102EA000029302A903F0A2FE08B1FEF71FF8002367
:102EB00008486946CDE9003305F09AFA08B1FEF7F3
:102EC00015F8044802F06DFB06B010BDE84A00207A
:102ED00000040040504B00200368B3F1804F82B0E3
:102EE0000DD1002300930E4B1A6C42F001021A64BC
:102EF0001B6C03F001030093009B02B07047094A6A
:102F00009342FAD100230193054B1A6C42F002025E
:102F10001A641B6C03F002030193019BEDE700BFF1
:102F200000380240000400400368B3F1804F05D12F
:102F3000074A136C23F0010313647047054A934258
:102F4000FBD102F50D32136C23F00203F4E700BF4E
:102F50000038024000040040044B054A1B68DB4374
:102F6000C2F8D0300023C2F8D4307047884A00201D
:102F7000E84A002008B5FFF7EFFF002008BDFFF783
:102F8000EBBF074A074BD2E934101B68DB43084408
:102F9000994238BF00F1FF30C01AC2E9343070479F
:102FA000E84A0020884A002010B50446FFF7E9FFF0
:102FB000001B10BD38B5B0F57A7F2ABF4FF47A7385
:102FC0000024B0FBF3F4FFF7DCFF25186B1C8342F1
:102FD00002D2FFF7C1FF2546FFF7D3FFA842FBD37C
:102FE00038BD024BC3F8D400704700BFE84A002048
:102FF00008B5FFF7C6FF002108BD4FF47A7070478F
:1030000010B5B0F57A7F2ABF4FF47A730024B0FB75
:10301000F3F4FFF7B6FF0444FFF7B3FF201A0028CC
:10302000FADA10BD82B000230093134B45F6C0526C
:103030001B68B3FBF2F36422534301930368019AC4
:1030400092B9826D42F0400282651A6822F0400215
:103050001A605A6822F0E0025A60DB680093009B15
:103060000723436502B07047019A013A01929A68BA
:103070009207E4D5E9E700BF0840002003685A68DA
:1030800022F080025A601A6822F040021A60072378
:10309000436570472DE9F3421C4616460F46054628
:1030A000FEF7C2F93444241AFEF7BEF9224B1B681E
:1030B000C3F3CB33814663432A680193936837EAAD
:1030C000030336D1731CF9D0FEF7AEF9A0EB09006B
:1030D000A04227D32B685A6822F0E0025A606A683F
:1030E000B2F5827F0AD1AA68B2F5004F02D0B2F5DC
:1030F000806F03D11A6822F040021A60AA6AB2F502
:10310000005F07D11A6822F400521A601A6842F46C
:1031100000521A6001236B6500232B65032002B067
:10312000BDE8F082019B002B019B08BF0024013BFE
:10313000C2E70020F3E700BF0840002038B513467F
:103140004268B2F5827F04461FD18268B2F5004F13
:1031500002D0B2F5806F07D125682868B2F5806F7C
:1031600020F04000286007D00A4680212046FFF763
:1031700091FF20B9002038BD0A460121F6E7A36D72
:1031800043F02003A3650320F5E70A460121EEE79B
:1031900037B51346124A1568124AB5FBF2F54FF4DB
:1031A0007A72554342680195B2F5827F04460BD18D
:1031B0000A468021FFF76EFF78B1A36D43F020032C
:1031C000A365032003B030BD019B33B1019B013BDC
:1031D000019323689B681B06F6D40020F2E700BF2A
:1031E0000840002000366E01704710B504460028E4
:1031F0004FD0436A002B48D14268B2F5827F00D09D
:10320000C3610023A362636D1BB923652046FFF7EA
:1032100065FD2168A068A269022363650B6823F03D
:1032200040030B60636800F4044003F482730343BB
:10323000E06800F400600343206900F002000343EB
:10324000606900F00100034302F400700343E06989
:1032500000F038000343206A00F080000343A06AB6
:1032600000F4005003430B60636A120C03F0100378
:1032700002F004021A434A60CB6923F40063CB6175
:1032800000200123A065636510BD0023C0E904335D
:10329000B7E70120F8E7704710B5044668B1026847
:1032A00002234365136823F040031360FFF74CFDCE
:1032B0000020A0652065606510BD0120FCE72DE9B8
:1032C000F7461F46036D012B04460D46914600F05C
:1032D0009A8001230365FEF7A7F88246606D0128F6
:1032E00040F08F80002D60D0B9F1000F5DD0032336
:1032F00063650023A365C4E91033A4F83690A36383
:10330000A387E387A36826682563B3F5004FA4F875
:10331000349007D1336823F040033360336843F4BB
:10332000804333603368E2685B065EBF336843F016
:1033300040033360B2F5006F63683DD113B1B9F15A
:10334000010F07D135F8023BF3602563E38E013BA3
:103350009BB2E386E38E9BB2A3B952463946204620
:10336000FFF716FF002849D1A36833B901932368FA
:10337000DA6801929B680193019BA06D003818BF29
:10338000012012E022689368980705D5236B33F873
:10339000021BD1602363D9E7FEF746F8A0EB0A00D1
:1033A000B842D7D3791CD5D003200123636500230D
:1033B000236503B0BDE8F08613B1B9F1010F08D160
:1033C0002B783373236B01332363E38E013B9BB272
:1033D000E386E38E9BB2002BBFD023689A689207E6
:1033E00003D5226B12781A73ECE7FEF71DF8A0EBF9
:1033F0000A00B842EDD37B1CEBD0D5E72023A365B0
:10340000B2E70220D1E70220D3E72DE9F7461E46B6
:10341000036DDDF82890012B04460D46924600F01E
:10342000D98001230365FDF7FFFF626D6168012A02
:1034300007460AD0B1F5827F40F0CA80A368002B0E
:1034400040F0C680042A40F0C380002D3DD0BAF180
:10345000000F3AD0002E38D0636DC4F838A0042B8A
:103460001CBF052363650023A365C4E910332368EB
:10347000E687E6861A68A687500658BF1A6825634D
:1034800058BF42F04002A68658BF1A60E268B2F503
:10349000006F4FD109B1012E07D135F8022BDA6048
:1034A000E38E2563013B9BB2E3860125E38E9BB24D
:1034B0006BB9E38F9BB253B93A4649462046FFF7B2
:1034C00067FE002879D02023A36501202BE0216826
:1034D0008B689A070DD5E38E9BB253B14DB1236B28
:1034E00033F8022BCA602363E38E013B9BB2E38671
:1034F00000258A6812F001020CD0E38F9BB24BB119
:10350000A36BC96823F8021BA363E38F013B9BB243
:10351000E3871546FDF788FFC01B4845C6D3B9F1C0
:10352000FF3FC3D00320012363650023236503B05D
:10353000BDE8F08609B1012E08D12A781A73236BF1
:1035400001332363E38E013B9BB2E3860125E38EC7
:103550009BB21BB9E38F9BB2002BADD0226893685E
:103560009B070ED5E38E9BB25BB155B1236B1B78E5
:103570001373236B01332363E38E013B9BB2E3861A
:1035800000252268916811F001010DD0E38F9BB2F4
:1035900053B1A36BD2681A70A36B0133A363E38F9B
:1035A000013B9BB2E3870D46FDF73EFFC01B48453C
:1035B000CDD3B9F1FF3FCAD0B4E7A368002BB2D195
:1035C00023680190DA6801929B680193019BAAE746
:1035D0000220A8E70220AAE72DE9F7461D46436826
:1035E000B3F5827F04468A4617460BD183684BB9F0
:1035F00004234365134600950A46FFF706FF03B010
:10360000BDE8F086236D012B79D001232365FDF7FA
:103610000BFF8146606D01286FD1BAF1000F5BD0BE
:10362000002F59D0A268C4F838A000260423B2F5B0
:10363000004F6365C4E91066A6652368E787A7871E
:103640002663A686E68607D11A6822F040021A6031
:103650001A6822F480421A601A6856065EBF1A6819
:1036600042F040021A60E368F3B1E38F9BB2FBB112
:1036700023689A68D20734D5DA68A36B23F8022B43
:10368000A363E38F013B9BB2E387EEE723689A686D
:10369000D00718D5A26B1B7B1370A36B0133A363F8
:1036A000E38F013B9BB2E387E38F9BB2002BEDD10D
:1036B0004A4629462046FFF741FDD8B9A06D00389B
:1036C00018BF012008E0FDF7AFFEA0EB0900A842FB
:1036D000EAD3691CE8D00320012363650023236536
:1036E0008DE7FDF7A1FEA0EB0900A842BDD36B1C3E
:1036F000BBD0F0E72023A365E0E70220ECE702203F
:103700007DE70346006D01283AD0012018650029A5
:103710002FD0002A2DD0586D01282DD103205865B7
:10372000002098651963DA8616499A869863164AC6
:103730009887D8871864D868002808BF0A4699680F
:103740005A64B1F5004F1A6807D1116821F04001A1
:103750001160116841F480411160516841F0A0018D
:103760005160106810F0400008D1116841F040012C
:10377000116000221A6570470220FAE70020F8E77E
:1037800002207047B93D0008D93D000830B5044615
:10379000006D012844D001202065606D6568012816
:1037A00007D0B5F5827F35D1A568002D32D1042828
:1037B00030D1002930D0002A2ED0002B2CD0606DC3
:1037C000A386042818BF05204FF0000518BF6065C8
:1037D000A387A565E386E387E3682163AB42114BCA
:1037E0001149A263114A18BF1A46114B18BF0B4664
:1037F000C4E9102323685A6842F0E0025A6018684E
:1038000010F040000AD11A6842F040021A6000230A
:10381000236530BD0220FAE70120F8E72846F6E7E5
:103820000220F6E7BF3F00088D3F00085D3F00081B
:103830002D3F00081346826870B404460D464AB90D
:103840004668B6F5827F05D10422426570BC0A46FF
:10385000FFF79CBF216D01293AD0606D012188429C
:10386000216531D1002D2BD0002B29D0002004213F
:103870006165A387A0651749E3872063164BA0867F
:10388000E0866064E068A563002808BF0B46B2F5D7
:10389000004F2364236807D11A6822F040021A609F
:1038A0001A6822F480421A605A6842F060025A6034
:1038B000186810F0400009D11A6842F040021A60FE
:1038C0000023236570BC70470220F9E70020F7E76A
:1038D0000220F7E7533E0008733E000838B5036D39
:1038E000012B04464ED0456D01239D42036547D10F
:1038F00000292FD0002A2DD00323436500238365A0
:10390000C0E91033C28683638387C3878368828656
:10391000B3F5004F0268016307D1136823F0400339
:103920001360136843F480431360A06C164B436428
:10393000164B0364164B036500234365E38E0C327C
:103940009BB201F0D0F948B1A36D43F01003A36519
:103950000123636500232365284638BD23681A6860
:1039600052065EBF1A6842F040021A605A6842F07E
:1039700020025A605A6842F002025A600025E9E7C4
:103980000225E7E70225E7E7193D00080D4000089A
:10399000F13F000870B50446006D01286CD001208D
:1039A0002065606D6568012807D0B5F5827F5FD11D
:1039B000A568002D5CD104285AD100295AD0002ACC
:1039C00058D0002B56D0606DA386042818BF052060
:1039D0004FF0000518BF6065A565E386E387A38700
:1039E000636D264E2163042B254BE06C2549A263B1
:1039F00008BF1946244B08BF3346C4E91055C0E937
:103A00001031224B2168C0E91435E38F0C319BB291
:103A100001F069F9034640B1A36D012043F01003A2
:103A2000A36560650023236570BD2268A06C5168A2
:103A300041F001015160C0E91033C0E91433E38E55
:103A4000216B9BB20C3201F04EF90028E4D12368BF
:103A50001A6852065EBF1A6842F040021A605A683D
:103A600042F020025A605A6842F002025A60D9E7D6
:103A70000220D7E70120D5E70220D5E77B400008E8
:103A8000213D0008293D0008E3400008F13F0008FF
:103A90002DE9F042876804460D46134657B942683F
:103AA000B2F5827F06D104224265BDE8F0420A46A3
:103AB000FFF770BF226D012A4FD0666D012296423A
:103AC000226548D1002D2FD0002B2DD00422626515
:103AD000B7F5004F4FF00002A265C4E91022E3875A
:103AE0002168A563A387A286E28607D10B6823F02D
:103AF00040030B600B6823F480430B60E06C184BB1
:103B00004364184B0364184B036500234365E38F3C
:103B10002A469BB20C3101F0E6F850B1A36D43F098
:103B20001003A36501236365002323653046BDE8C8
:103B3000F08223681A6852065EBF1A6842F040029B
:103B40001A605A6842F020025A605A6842F0010234
:103B50005A600026E8E70226E6E70226E6E700BF0D
:103B6000213D00087B400008F13F00081FB5454B90
:103B700045F6C0521B68B3FBF2F364225343019332
:103B8000019B009303685A6822F020025A605A6829
:103B9000120604460AD53C4A4264009A002A5BD1C8
:103BA000A26D42F04002A265019A00925A68500646
:103BB0000AD5364A2264009A002A54D1A26D42F0F6
:103BC0004002A265019A00925B68990714D5A06C27
:103BD00090B10023436501F0BDF808B14023A3650F
:103BE00023685A6822F002025A60009A002A41D1E2
:103BF000A36D43F04003A36523685B68DB0711D521
:103C0000E06C78B10023436501F0A4F808B14023CB
:103C1000A36523681A6822F040021A605A6822F0ED
:103C200001025A600023E387E386A26D402A2268DE
:103C300018BFA3650293D16802919168029102991D
:103C4000039318BF184693680393039B08BF012092
:103C50000123636504B010BD009A013A0092626DC1
:103C6000072A9AD1A0E7009A013A0092626D072ACA
:103C7000A1D1A7E7009A013A00929A689207B4D5B9
:103C8000BAE700BF084000207D300008253000085A
:103C9000026D012A1CBF01684A6803461FBF22F05B
:103CA000030200204A60186508BF02207047026DB9
:103CB000012A1CBF01684A6803461FBF42F0030285
:103CC00000204A60186508BF0220704738B50446D6
:103CD000806C98B90025E06C38B101F03BF820B158
:103CE000A36D43F01003A36501252268536823F0F8
:103CF0000303536001236365284638BD01F02AF8A9
:103D00000028E7D0A36D43F01003A3650125E2E787
:103D10007047704770477047C06BFFF7FCBF704734
:103D2000C06BFFF7FCBF7047C06BFFF7FCBF70476D
:103D300013B5204B45F6C0521B68B3FBF2F3642267
:103D4000534304460093FDF76FFB23680246009936
:103D500019BBA16D41F02001A165596821F0A001B6
:103D6000596020466421FFF713FA18B1A36D43F0A0
:103D70002003A365A36833B901932368DA6801922D
:103D80009B680193019B01236365A36D20465BB192
:103D900002B0BDE81040FFF7CABF00990139009199
:103DA00099688907D3D5D8E702B0BDE81040FFF77E
:103DB000AFBF00BF08400020016B02680978117393
:103DC000026B01320263C28E013A92B2C286C38E86
:103DD0009BB203B9ACE77047026B016810B432F8CC
:103DE000024BCC600263C28E013A92B2C286C38E8D
:103DF0009BB20BB910BC9BE710BC704702685368BC
:103E000023F0600313B553600446FDF70DFB6421F6
:103E100002462046FFF792F918B1A36D43F0200344
:103E2000A365A36833B901932368DA6801929B689C
:103E30000193019B01236365A36D204623B902B062
:103E4000BDE81040FFF765BF02B0BDE81040FFF7C6
:103E50006EBF0168826B097B1170826B01328263D5
:103E6000C28F013A92B2C287C38F9BB203B9C5E732
:103E700070470268D168826B22F8021B8263C28F8E
:103E8000013A92B2C287C38F9BB203B9B6E77047BB
:103E900013B5254B04461B6845F6C052B3FBF2F33D
:103EA000642253430093FDF7BFFA2368596821F059
:103EB000200102465960009911BBA36D43F0200315
:103EC000A36564212046FFF763F918B1A36D43F0A1
:103ED0002003A365A36833B901932368DA680192CC
:103EE0009B680193019BA26D0123AAB9626D636572
:103EF000042A20460BD102B0BDE81040FFF709BFED
:103F000000990139009199688907D4D5D9E702B0A1
:103F1000BDE81040FFF7FEBE2046636502B0BDE875
:103F20001040FFF704BF00BF08400020016B02688B
:103F300009781173026B01320263C28E013A92B2A8
:103F4000C286C28E92B242B901684A6822F08002EB
:103F50004A60C38F9BB203B99AE770470168826BCE
:103F6000097B1170826B01328263C28F013A92B277
:103F7000C287C28F92B242B901684A6822F06002D9
:103F80004A60C38E9BB203B982E77047026B016837
:103F900010B432F8024BCC600263C28E013A92B286
:103FA000C286C28E92B242B94A6822F080024A604A
:103FB000C38F9BB20BB910BC6AE710BC7047016895
:103FC000826B10B4CC6822F8024B8263C28F013A34
:103FD00092B2C287C28F92B242B94A6822F04002BE
:103FE0004A60C38E9BB20BB910BC51E710BC70473E
:103FF000C06B0268536823F003035360836D43F082
:104000001003836501234365FFF791BE37B505466D
:10401000C46BFDF709FA2B681B68DB05024626D442
:104020002368596821F020015960596821F0020184
:10403000596020466421FFF7ABF818B1A36D43F037
:104040002003A365A36833B901932368DA6801925A
:104050009B680193019B0023E38601236365A36DA5
:104060002BB1204603B0BDE83040FFF760BE2046CC
:1040700003B0BDE83040FFF74BBE38B50546C46B12
:10408000FDF7D2F92B681B68DB05024624D42368B0
:10409000596821F020015960A168C9B96168B1F57A
:1040A000827F15D1596821F00301596020466421AF
:1040B000FFF744F808B12023A3650023E387012319
:1040C0006365A36D43B12046BDE83840FFF72FBEBE
:1040D000596821F00101E8E72046BDE83840FFF7C4
:1040E00018BE38B50546C46BFDF79EF92B681B68F2
:1040F000DB0502461ED421684B6823F020034B6089
:1041000020466421FFF744F818B1A36D43F0200363
:10411000A3652268536823F0030353600023E386FA
:10412000E38701236365A36D23B12046BDE83840D2
:10413000FFF7FDBD2046BDE83840FFF7EBBD036843
:1041400030B559689A6802F04105012D85B00446E2
:1041500006D14D0604D5036C05B0BDE830401847C4
:10416000950704D5080602D5636C2046F4E712F4DF
:10417000B07F57D08D0655D550060ED5606D0328FB
:104180004FF0000548D0A06D40F00400A0650095F8
:10419000D868009098680090009895060CD5A06D9E
:1041A00040F00100A0650020029098680290186815
:1041B00020F0400018600298D00508D5A26D42F0AA
:1041C0000802A265002203929A680392039AA26DE4
:1041D00042B35A6822F0E0025A60012262658A07FF
:1041E00022D05A68E06C22F003025A6040B1114BB1
:1041F000436500F0E9FD18B1A36D43F04003A365EA
:10420000A06C78B10B4B436500F0DEFD50B1A36D9F
:1042100043F04003A36505E00195DA6801929B68CD
:104220000193019B05B030BD204605B0BDE830408C
:10423000FFF77DBD39420008C06B0023C387C386EA
:10424000FFF775BD704730B5434B85B045F6C0529A
:104250001B68B3FBF2F3642253430193019B009369
:1042600003685A6822F020025A605A680446100611
:104270000AD53A4A6264009A002A3ED1A26D42F001
:104280004002A265019A00925A6851060AD5344A42
:104290002264009A002A37D1A26D42F04002A26542
:1042A000019A0092A06C28B15A6812F0020218BF5D
:1042B0002C4A4265E16C29B15A6812F0010218BF1C
:1042C000294A4A655B689A0709D540B100F07CFD30
:1042D000054628B1A36C00225A654023A365012539
:1042E00023685B68DB071BD5E06CC8B100F06CFD90
:1042F00088B90025284605B030BD009A013A0092E1
:10430000626D072AB7D1BDE7009A013A0092626D4B
:10431000072ABED1C4E7E36C00225A654023A36597
:10432000012DE6D10023E387E386A26D402A2268AF
:1043300018BFA3650293D168029191680291029916
:10434000039318BF1D4693680393039B0123636582
:104350002046FFF777FFCDE7084000207D300008BA
:1043600025300008E14300086D43000813B5C46B15
:1043700023681A6822F040021A60E26C002151653D
:104380005A6822F001025A60FDF74EF86421024695
:104390002046FEF7FDFE18B1A36D43F04003A36570
:1043A000A36C0BB15B6DCBB90023E387E386A26DF1
:1043B000402A226818BFA3650093D16800919168D4
:1043C00000910099019393680193019B204601237A
:1043D000636502B0BDE81040FFF734BF02B010BD06
:1043E000C06B836C00225A651B4B45F6C0521B689C
:1043F000B3FBF2F384B064225343019303685A6819
:1044000022F002025A60019AEAB9826D42F040023B
:104410008265C26C0AB1526DE2B90022C287C286BF
:10442000816D402918BF82650292D968029199680E
:104430000291029903929B680393039B01234365B6
:1044400004B0FFF7FFBE019A013A01929A68920701
:10445000D9D5DEE704B0704708400020406D7047B2
:10446000806D7047002070472DE9F342044640B349
:104470000368DD0710D4236898075BD423681A0704
:1044800000F19D8023685B0700F1BD80A0690028D2
:1044900040F0248100202CE08D4B9A6802F00C0241
:1044A000042A07D09A6802F00C02082A0BD15B6834
:1044B000590208D5864B1B689A03DCD56368002B2C
:1044C000D9D1012015E06368814DB3F5803F13D148
:1044D0002B6843F480332B60FCF7A6FF7C4E054627
:1044E00033689B03C7D4FCF79FFF401B6428F7D9B0
:1044F000032002B0BDE8F082B3F5A02F04D12B68F1
:1045000043F480232B60E3E72A6822F480322A6098
:104510002A6822F480222A60002BDDD1FCF784FF78
:1045200006462B689F03A6D5FCF77EFF801B6428F8
:10453000F7D9DDE7664B9A6812F00C0F07D09A683E
:1045400002F00C02082A11D15B685E020ED4604AA8
:1045500013689D0702D5E368012BB2D11368216966
:1045600023F0F80343EAC103136087E7E268594B7D
:10457000B2B101221A60FCF757FF554D06462B6871
:10458000980707D52B68226923F0F80343EAC20392
:104590002B6073E7FCF748FF801B0228EFD9A7E7E1
:1045A0001A60FCF741FF4A4E0546336899077FF5CC
:1045B00065AFFCF739FF401B0228F6D998E762691E
:1045C000444B82B10122C3F8802EFCF72DFF404EF0
:1045D0000546736F9F073FF555AFFCF725FF401B5E
:1045E0000228F6D984E7C3F8802EFCF71DFF384E69
:1045F0000546736F98077FF545AFFCF715FF401B25
:104600000228F6D974E7324B1A6C12F0805228D186
:1046100001921A6C42F080521A641B6C03F08053B2
:104620000193019B01272C4D2B68D9051BD5A3684D
:10463000274D012B27D12B6F43F001032B67FCF78C
:10464000F3FE234E054641F28839336F9B0739D577
:10465000002F3FF41BAF1E4A136C23F080531364EA
:1046600014E70027DFE72B6843F480732B60FCF727
:10467000DBFE06462B68DA05D9D4FCF7D5FE801B95
:104680000228F7D934E7052B04D12B6F43F004033C
:104690002B67D0E72A6F22F001022A672A6F22F0E7
:1046A00004022A67002BCAD1FCF7BEFE41F288390A
:1046B00006462B6F9807CBD5FCF7B6FE801B484506
:1046C000F7D915E7FCF7B0FE401B4845BDD90FE709
:1046D000003802400000474200700040364DAB6891
:1046E00003F00C03082B3DD0344B002202281A663D
:1046F0002BD1FCF799FE06462B6899011FD4D4E90B
:1047000007321343626A43EA8213E26A43EA0263AE
:10471000A26A5208013A43EA02436B60274B264DD6
:1047200001221A66FCF780FE04462B689A013FF5C9
:10473000B1AEFCF779FE001B0228F6D9D8E6FCF7EB
:1047400073FE801B0228D7D9D2E6FCF76DFE044623
:104750002B689B017FF59EAEFCF766FE001B0228CE
:10476000F6D9C5E601283FF4C4AE6B68E26903F4EC
:10477000800191427FF4A5AE216A03F03F028A4294
:104780007FF49FAE616A47F6C0721A40B2EB811F98
:104790007FF497AEA26A520803F44031013AB1EBBC
:1047A000024F7FF48EAEE26A03F07063B3EB026FE8
:1047B0003FF470AE85E600BF00380240000047427B
:1047C00070B5224C88B00E461546F8B90190236B9F
:1047D00043F001032363236B079003F0010301936C
:1047E000019B4FF4807C0223CDE903C30323CDE971
:1047F000050303A91648FCF71DFCA36823F0EC632E
:1048000043EA06012943A16008B070BD002302936A
:10481000226B104842F004022263226B079302F0DD
:1048200004020292029A4FF400710222CDE90312AF
:10483000032203A9CDE90532FCF7FCFBA36823F0B2
:10484000784343EA060141EAC501DCE7003802404B
:104850000000024000080240014B0122DA64704768
:1048600000004742014B0022DA64704700004742D3
:10487000134908B58B6803F00C03042B1CD0082BDC
:104880001CD14A684B68496813F4800314BF0D4873
:104890000D48C1F3881118BF002302F03F02A1FBAD
:1048A00000010EF071FB064B5B68C3F3014301335B
:1048B0005B00B0FBF3F008BD0248FCE70248FAE7F2
:1048C0000038024000127A000024F4002DE9F04282
:1048D0000D46044610B90120BDE8F082434B1A682A
:1048E00002F007028A4228D321688F072DD4C80717
:1048F00040D43E4B1A6802F00702AA4265D82268EB
:1049000051076BD4130707D5394A2169936823F4FB
:10491000604343EAC1039360FFF7AAFF344B354A73
:104920009B68C3F30313D35CD840334B1860334BFD
:104930001868FCF731FD0020CEE7CAB21A701B6878
:1049400003F007038B42C6D1CEE7294B11F0040FC9
:104950001EBF9A6842F4E0529A600E0742BF9A68FE
:1049600042F460429A609A68A06822F0F002024322
:104970009A60BCE762681E4B012A1CD11B6813F4C5
:10498000003FA8D01A4EB36823F003031343B3606B
:10499000FCF74AFD41F288390746B368626803F0C4
:1049A0000C03B3EB820FA4D0FCF73EFDC01B4845BF
:1049B000F3D9032090E7911E01291B6802D813F058
:1049C000007FDEE713F0020FDBE7EAB21A701B6824
:1049D00003F00703AB427FF47EAF90E70449E06841
:1049E0008B6823F4E05303438B608BE7003C024069
:1049F00000380240724301080840002004400020B3
:104A0000014B1868704700BF08400020044B054A5E
:104A10009B68C3F38223D35C034A1068D840704775
:104A2000003802408243010808400020044B054A38
:104A30009B68C3F34233D35C034A1068D840704785
:104A40000038024082430108084000200F23036021
:104A50001E4B1A68510356BF1A684FF4A02202F485
:104A6000803242601A6802F00102C2601A68C2F322
:104A7000C40202611A6F520756BF1B6F052303F071
:104A800001038360114B5A6F02F0010242611A6800
:104A900012F0807F14BF0222012282615A6802F460
:104AA0008002C2615A6802F03F0202625A68C2F391
:104AB000881242625A6802F4403202F58032D20B08
:104AC00082625B68C3F30363C362704700380240CD
:104AD0000F2303600B4B9A6802F0030242609A684E
:104AE00002F0F00282609A6802F4E052C2609B68B1
:104AF000DB0803F4E0530361034B1B6803F0070377
:104B00000B60704700380240003C0240704710B50F
:104B1000044CE3681B0603D5FFF7F8FF8023A3735B
:104B200010BD00BF00380240036810B5084C0246B3
:104B3000D9B210391820B1FBF0F0205C106623F4D4
:104B40007F7020F003005F2988BF0430D06510BD5E
:104B50008A430108F8B50446FCF766FC0646002CBB
:104B600070D022680223A36300236363136823F0D9
:104B7000010313602268156815F001052ED1136832
:104B80003148A1691840D4E901363343E66833431C
:104B90002669334366693343E6690B433343266A28
:104BA00033430343606A042802BFD4E90B673E43E2
:104BB000334313605369042823F0070343EA0003D7
:104BC00033D1A06AE66A03437EB391B9012821D0AC
:104BD00030F0020129D1F10127D51EE0FCF724FCB9
:104BE000801B0528C6D92023A3650325A563284675
:104BF000F8BDB1F5005F14D1032816D801A151F812
:104C000020F000BF1B4C0008D74B00081B4C0008CD
:104C1000154C0008B6F1C07F07D14023A3650125DC
:104C2000E4E70228F9D90328D5D053612046FFF7DD
:104C30007BFF226E3F23934083600023A365012303
:104C4000A363D4E70125D2E73F8010F038B50546CD
:104C500000B3846B022C1BD003681A6822F0010297
:104C600000241A6021221C605C609C60DC601C6176
:104C70005A61FFF759FF2A6E3F239340C5E910445C
:104C8000C5E91244C5E914448360AC656C63AC6348
:104C9000204638BD0124FBE730B50446406B0128AF
:104CA0001FD001206063A06B01284FF000054FF07A
:104CB000020014D1A0632068A565056825F480254D
:104CC00005604360A368402B0BBF82608160C160B8
:104CD000C260036843F001030360002030BD6563D8
:104CE000FCE70220FAE770B5C66D0446406B012868
:104CF0002ED001206063A06B01284FF000054FF01B
:104D0000020023D1A0632068A565056825F48025ED
:104D100005604360A368402B0EBF82608160C26063
:104D2000226E08BFC1603F239340B360036843F025
:104D300016030360636C1BB1036843F00803036050
:104D4000036843F001030360002070BD6563FCE766
:104D50000220FAE770B50446C56DFCF765FBA36B4E
:104D6000022B064605D08023A36501200023636340
:104D700070BD23681A6822F016021A605A6922F080
:104D800080025A61626C0AB9E26C1AB11A6822F0A8
:104D900008021A601A6822F001021A602368186873
:104DA00010F0010006D1226E3F239340AB60012337
:104DB000A363DBE7FCF738FB801B0528EED9202333
:104DC0000320A365A063D1E7836B022B03D080236C
:104DD000836501207047026805238363136823F00D
:104DE00001031360002070472DE9F04E04460F4682
:104DF0009146FCF719FBA36B022B824607D0802358
:104E0000A3650023636301252846BDE8F08E23686F
:104E10001B68DA0503D54FF48073A365F3E7256EAD
:104E2000F7B92023E66D03FA05F533684FF0080B58
:104E30001D4202D1A36DDB0714D5A36D002B49D011
:104E4000A56D15F0010545D02046FFF783FF226EC2
:104E500030239340B3600123A36300236363D3E74C
:104E60001023DFE7B9F1FF3F10D0B9F1000F07D1F0
:104E70002023A3650123A363002363630325C3E702
:104E8000FCF7D2FAA0EB0A004845F1D8206E33684F
:104E90000BFA00F119421EBFA26D42F00102A26599
:104EA0004FF0010218BFB16002FA00F119421EBFB3
:104EB000A26D42F00202A2654FF0040202FA00F273
:104EC00018BFB1601A421FBFA06D40F00400A0657A
:104ED000B260ADE7226E3FB930239340B360012347
:104EE000A363676300258FE710239340B360F9E75E
:104EF000F7B500230193584BC56D1F68036E2E68EC
:104F000008229A40324204460CD0016808684007E3
:104F100008D5086820F004000860AA60A26D42F07D
:104F20000102A26501229A40324208D021684969F3
:104F3000090641BFAA60A26D42F00202A2650422E6
:104F40009A40324208D021680968880741BFAA60A8
:104F5000A26D42F00402A26510229A40324210D0A3
:104F60002368196809070CD5AA601A68500334D55C
:104F70001B68190301D4636C00E0E36C0BB120469D
:104F80009847216E20228A40324237D02368186821
:104F9000C60633D5AA60A26B052A1A6825D122F06D
:104FA00016021A605A6922F080025A61626C0AB9CC
:104FB000E26C1AB11A6822F008021A603F238B4093
:104FC000AB600123A36300236363636D002B40D0B8
:104FD000204603B0BDE8F04018471A68D2055EBF0E
:104FE0001A6822F008021A60C5E7500324D51B682E
:104FF00019032CD4A36C0BB120469847A36D43B37F
:10500000A36DDA0716D522684FF41653B7FBF3F7F2
:105010000523A363136823F001031360019B01338D
:10502000BB42019302D81368DB07F7D40123A363C3
:1050300000236363236DC9E71A6812F4807206D1F6
:10504000196821F0100119600123A3636263236CC6
:10505000D1E703B0F0BD00BF08400020436B012B37
:105060001BD0836B012B16D105290AD8DFE801F08C
:1050700003080B0D0F1102640023436308467047B9
:1050800042640021F8E78264FBE7C264F9E7026545
:10509000F7E74265F5E70121EEE702207047426B32
:1050A000012A10B5034624D001224263806B90424E
:1050B0001DD10022062907D8DFE801F004090C0EF3
:1050C000101712001A64084600225A6310BD5A6471
:1050D0000020F9E79A64FBE7DA64F9E71A65F7E775
:1050E000C3E91022C3E912221A655A65F0E7104697
:1050F000EAE70220EAE7806B7047806D704700BFE7
:105100000749CA6822F4E0620302120403F4E06370
:10511000120C134343F0BF6343F40033CB6070477A
:1051200000ED00E0174BDB68C3F3022370B5C3F159
:105130000704042C164603F1040228BF04244FF090
:10514000FF35062A8CBF033B002305FA04F421EA4D
:1051500004019D4001FA03F226EA0503002842EA11
:105160000302ACBF00F16040074B4FEA0212B8BF28
:1051700000F00F00D2B2AABF00F561401A5480F8C7
:10518000002370BD00ED00E014ED00E0002807DB17
:105190004109044A00F01F000123834042F82130F6
:1051A000704700BF00E100E000280CDB430906491E
:1051B00000F01F0020330122824041F82320BFF37A
:1051C0004F8FBFF36F8F704700E100E0BFF34F8F49
:1051D0000549064BCA6802F4E0621343CB60BFF393
:1051E0004F8F00BFFDE700BF00ED00E00400FA05AF
:1051F0000138B0F1807F0BD24FF0E023054A5861AF
:10520000F02182F823100020072298611A6170476C
:105210000120704700ED00E0BFF35F8F044B5A6A36
:1052200022F480325A620022C3F89420704700BFF3
:1052300000ED00E0064B40F00100C3F894005A6A0C
:1052400042F480325A62BFF34F8FBFF36F8F7047C3
:1052500000ED00E0144A437810B5C2F898300178A8
:10526000E9B14368C2F89C30C37A047B1B0643EA69
:1052700004730B43817A43EAC143417B43EA814390
:10528000817B43EA4143C17B43EA0143417A43EADC
:105290000123017A43EA4103C2F8A03010BDC2F8ED
:1052A0009C10C2F8A010F9E700ED00E0024BD868AE
:1052B000C0F30220704700BF00ED00E070B5002889
:1052C000AEBF00F16040124C00F00F0001F007018A
:1052D000AABF00F56140205C90F80003C1F107040B
:1052E0000D1D042C28BF0424062D4FEA10108CBF7E
:1052F000033900214FF0FF3505FA04F420FA01F6D6
:105300008D4026EA040420EA05001460186070BD90
:1053100014ED00E0002808DB4309044900F01F00F9
:1053200001224033824041F82320704700E100E031
:105330000028A1BF43094033054A52F82330A3BFD8
:1053400000F01F0023FA00F000F001000020704779
:1053500000E100E0002808DB4309044900F01F00D9
:1053600001226033824041F82320704700E100E0D1
:105370000028A1BF43098033054A52F82330A3BF58
:1053800000F01F0023FA00F000F001000020704739
:1053900000E100E04FF0E02304281A690CBF42F05E
:1053A000040222F004021A6170477047FFF7FDBF44
:1053B000036A23F001030362036A70B544688269DB
:1053C0000D6822F073022A438D6823F002032B43F9
:1053D0000E4DA84202D00E4EB04210D1CE6823F03E
:1053E00008033343A84223F0040302D0084DA84227
:1053F00005D1D1E9055624F4407435432C4344606B
:1054000082614A684263036270BD00BF00000140D0
:1054100000040140036A23F480730362036A426854
:1054200070B5C4690D6824F073042C438D6823F4AF
:10543000007343EA0523114DA84203D005F58065AA
:10544000A84214D1CD6823F4006343EA05230B4D31
:10545000A84223F4806303D005F58065A84206D1F5
:1054600022F44055D1E90526324345EA0212426052
:105470004A68C461C263036270BD00BF000001409E
:10548000036A23F480530362036A30B54468C26937
:105490000D6822F4E64242EA05228D6823F40053A7
:1054A00043EA0533084DA84203D005F58065A842BC
:1054B00004D14D6924F4804444EA85144460C261F7
:1054C0004A680264036230BD0000014070477047C3
:1054D000022310B503640368196A41F211121142E4
:1054E000044608D1196A40F24442114202BF1A68C8
:1054F00022F001021A602046FDF716FD00206066CA
:10550000E0636064A064E06420656065A065E065B8
:105510002066206410BD036C012B2BD10223164A98
:105520000364036893421AD0B3F1804F17D0A2F5F9
:105530007C42934213D002F5806293420FD002F571
:10554000806293420BD002F57842934207D002F575
:105550007052934203D0A2F59432934204D19A68D8
:1055600002F00702062A03D01A6842F001021A600C
:105570000020704701207047000001400368196A4D
:1055800041F21112114208D1196A40F2444211420B
:1055900002BF1A6822F001021A600123036400208E
:1055A0007047036C012B2FD1022303640368DA6870
:1055B00042F00102DA60154A93421AD0B3F1804FEB
:1055C00017D0A2F57C42934213D002F58062934239
:1055D0000FD002F5806293420BD002F578429342DD
:1055E00007D002F57052934203D0A2F59432934251
:1055F00004D19A6802F00702062A03D01A6842F022
:1056000001021A600020704701207047000001402D
:105610000368DA6822F00102DA60196A41F21112B5
:10562000114208D1196A40F24442114202BF1A687D
:1056300022F001021A60012303640020704710B5B4
:105640000446006C0228134603D0226C012A01D0C4
:10565000012010BD09B9002BFAD1206A0222226470
:105660001C4A02641C4A42641C4A026522682C32AD
:10567000FFF739FB0028EBD12368DA6842F4807227
:10568000DA60174A93421AD0B3F1804F17D0A2F5CF
:105690007C42934213D002F5806293420FD002F510
:1056A000806293420BD002F57842934207D002F514
:1056B0007052934203D0A2F59432934204D19A6877
:1056C00002F00702062AC4D01A6842F001021A60EA
:1056D000BFE700BF4B6100085D6100080964000876
:1056E000000001400268D36810B523F480730446BB
:1056F000D360006AFFF768FB2368196A41F2111250
:10570000114208D1196A40F24442114202BF1A689C
:1057100022F001021A6001232364002010BD7047AB
:105720007047022310B503640368196A41F211122D
:105730001142044608D1196A40F24442114202BFA4
:105740001A6822F001021A602046FFF7E9FF0020E4
:105750006066E0636064A064E06420656065A065E5
:10576000E0652066206410BD70477047022310B5C5
:1057700003640368196A41F211121142044608D108
:10578000196A40F24442114202BF1A6822F0010233
:105790001A602046FFF7E9FF00206066E06360645E
:1057A000A064E06420656065A065E0652066206413
:1057B00010BD70477047022310B503640368196A6F
:1057C00041F211121142044608D1196A40F24442D2
:1057D000114202BF1A6822F001021A602046FFF748
:1057E000E9FF00206066E0636064A064E064206517
:1057F0006065A065E0652066206410BD7047704755
:10580000022310B503640368196A41F211121142B0
:10581000044608D1196A40F24442114202BF1A6894
:1058200022F001021A602046FFF7E9FF00206066BF
:10583000E0636064A0646065A065206410BD0346F9
:10584000406C012810B59C6C596D9A6D28D1012CC3
:1058500027D1012925D1012A23D102225A649A6431
:105860005A659A651B681A6A22F001021A621A6A5E
:1058700042F001021A621A6A22F010021A621A6ACF
:1058800042F010021A62074A934203D002F5806286
:10589000934203D15A6C42F400425A64002000E063
:1058A000012010BD0000014003681A6A22F00102C5
:1058B0001A621A6A1A621A6A22F010021A621A6AC4
:1058C0001A62154A934203D002F5806293420DD1C9
:1058D000196A41F21112114208D1196A40F2444288
:1058E000114202BF5A6C22F400425A64196A41F212
:1058F0001112114208D1196A40F24442114202BF0A
:105900001A6822F001021A6001234364836443652C
:1059100083650020704700BF000001400346406CD3
:10592000012810B59C6C596D9A6D30D1012C2FD186
:1059300001292DD1012A2BD102225A649A645A6579
:105940009A651B68DA6842F00202DA60DA6842F0AF
:105950000402DA601A6A22F001021A621A6A42F03C
:1059600001021A621A6A22F010021A621A6A42F0DE
:1059700010021A62074A934203D002F580629342F2
:1059800003D15A6C42F400425A64002000E0012026
:1059900010BD00BF000001400368DA6822F0020277
:1059A000DA60DA6822F00402DA601A6A22F0010290
:1059B0001A621A6A1A621A6A22F010021A621A6AC3
:1059C0001A62154A934203D002F5806293420DD1C8
:1059D000196A41F21112114208D1196A40F2444287
:1059E000114202BF5A6C22F400425A64196A41F211
:1059F0001112114208D1196A40F24442114202BF09
:105A00001A6822F001021A6001234364836443652B
:105A100083650020704700BF000001407047704759
:105A2000022310B503640368196A41F2111211428E
:105A3000044608D1196A40F24442114202BF1A6872
:105A400022F001021A602046FFF7E9FF002060669D
:105A5000E0636064A0646065A065206410BD0346D7
:105A600030B5406C9A6C5D6D9C6DB1B901283DD12B
:105A7000012D11D102225A645A651A68116A21F067
:105A800001011162116A41F0010111621A68136883
:105A900043F001031360002030BD04290FD1012A17
:105AA00024D1012C22D102229A649A651A68116AC3
:105AB00021F010011162116A41F01001E5E701289F
:105AC00014D1012AE8D1012DE6D1012CE4D1022222
:105AD0005A649A645A659A651A68116A21F001013C
:105AE0001162116A41F001011162E0E70120D3E780
:105AF00010B5036859B1042905D01A6A22F00102D1
:105B00001A621A6A1A621A6A22F0100202E01A6A0B
:105B100022F001021A621A6A1A621C6A41F2111218
:105B2000144208D11C6A40F24442144202BF1A686F
:105B300022F001021A60012321B1042906D18364F5
:105B4000836501E043644365002010BD43648364C2
:105B50004365F5E7034630B5406C9A6C5D6D9C6D0E
:105B6000D1B9012851D1012D15D102225A645A65AB
:105B70001A68116A21F001011162116A41F00101F4
:105B80001162D16841F00201D1601A68136843F0D4
:105B900001031360002030BD042913D1012A34D140
:105BA000012C32D102229A649A651A68116A21F096
:105BB00010011162116A41F010011162D16841F0C7
:105BC0000401E1E7012820D1012AE4D1012DE2D12D
:105BD000012CE0D102225A649A645A659A651A68C7
:105BE000116A21F001011162116A41F00101116293
:105BF000116A21F010011162116A41F01001116265
:105C0000D16841F00201D160D8E70120C3E7036801
:105C100010B51A6AE9B922F001021A621A6A1A6208
:105C2000DA6822F00202DA601C6A41F211121442B0
:105C300008D11C6A40F24442144202BF1A6822F0A2
:105C400001021A600123F9B1042921D1836483651B
:105C50001CE0042908D122F010021A621A6A1A62A2
:105C6000DA6822F00402DEE722F001021A621A6A00
:105C70001A621A6A22F010021A621A6A1A62DA6842
:105C800022F00202DA60EBE743644365002010BDB6
:105C9000436483644365DAE72DE9F8460446994690
:105CA000BDF82050436C876C406DA66D002931D142
:105CB000022B00F0A880022802D0012B02D0012084
:105CC000BDE8F8860128FAD10AB9002DF7D1606A3B
:105CD00021680223636463654E4B03644E4B436447
:105CE0004E4B036534312B46FEF7FDFF0028E6D10D
:105CF0002368DA6842F40072DA601A6A22F001025C
:105D00001A621A6A42F001021A621A6842F001022B
:105D10001A60D5E704292BD1022F76D0022E76D037
:105D2000012FCCD1012ECAD1B9F1000F01D1002D24
:105D3000C5D1A06A21680223A364A365354B03641F
:105D4000354B4364354B03654A462B463831FEF7E5
:105D5000CAFF0028B3D12368DA6842F48062DA60AF
:105D60001A6A22F010021A621A6A42F01002CBE795
:105D7000022B48D0022F48D00228A1D0022E46D0B4
:105D8000012B9CD1012F9AD1012898D1012E96D1B7
:105D900012B1B9F1000F01D1002D90D12168606AD4
:105DA000DFF870A01C4F1D4E022363643431A364DE
:105DB0006365A365C0F840A0476406652B46FEF7FF
:105DC00092FF00287FF47BAFA06A21680665C0E9D6
:105DD00010A72B464A463831FEF785FF00287FF48E
:105DE0006EAF2368DA6842F40072DA60DA6842F46F
:105DF0008062DA601A6A22F001021A621A6A42F0BC
:105E000001021A62ACE718465AE7384658E73046AE
:105E100056E700BF67610008D36100080964000805
:105E200038B5036804461A6A0D4609BB22F0010220
:105E30001A621A6A1A62DA68406A22F40072DA6038
:105E4000FEF7C2FF2368196A41F21112114208D10C
:105E5000196A40F24442114202BF1A6822F001025C
:105E60001A60012345B3042D2AD1A364A36525E05C
:105E700004290AD122F010021A621A6A1A62DA6838
:105E800022F48062DA60A06ADAE722F001021A6284
:105E90001A6A1A621A6A406A22F010021A621A6AB0
:105EA0001A62DA6822F40072DA60DA6822F4806238
:105EB000DA60FEF789FFE6E763646365002038BDBA
:105EC0006364A3646365D1E7F8B50446406E0228B5
:105ED0000F4615461946DDE9066305D0626E012AB4
:105EE00005D111B90EB10120F8BD02226266B5F5E7
:105EF000006F30D01DD8B5F5007F25D0B5F5806F87
:105F000027D0B5F5807FEED1206A194A0264194A7C
:105F10004264194A026522684C32FEF7E4FE00280A
:105F2000E1D123683E439E64DA682A43DA600020A8
:105F3000DAE7B5F5005F10D0B5F5804F12D0B5F5B2
:105F4000805FD0D1206B00E0606A0C4A02640C4A8A
:105F5000DEE7A06AF9E7E06AF7E7606B094A0264E6
:105F6000094AD5E7A06B094A0264094AD0E700BF95
:105F70004B6100085D610008096400080D620008BB
:105F800071620008C5840008D1840008EF6300082E
:105F90000164000837B5069D2C0A0134CDE9005490
:105FA000FFF792FF03B030BDB1F5006F38B504467E
:105FB0000D4626D00AD8B1F5007F1ED0B1F5806F0E
:105FC0001DD0B1F5807F0CD0012038BDB1F5005F48
:105FD00019D0B1F5804F18D0B1F5805FF4D1006BC6
:105FE00000E0006AFEF7F0FE2268D36823EA0503AA
:105FF000D360012363660020E7E7406AF2E7806A26
:10600000F0E7C06AEEE7406BECE7806BEAE7F8B5D3
:106010000446406E022815460F461A46DDE906631F
:1060200005D0616E012905D112B90EB10120F8BD6C
:1060300002216166B5F5006F30D01DD8B5F5007F3F
:1060400025D0B5F5806F27D0B5F5807FEED1206AD9
:1060500018490164184941641849016521684C31A7
:10606000FEF741FE0028E1D123683E439E64DA68D2
:106070002A43DA600020DAE7B5F5005F10D0B5F505
:10608000804F12D0B5F5805FD0D1206B00E0606A00
:106090000B4901640B49DEE7A06AF9E7E06AF7E71C
:1060A000606B094901640949D5E7A06B084901649F
:1060B0000849D0E74B6100085D61000809640008E9
:1060C00067610008D3610008C5840008D184000816
:1060D000EF6300080164000837B5069D2C0A0134FF
